:100000000C9434000C943E000C943E000C943E0082
:100010000C943E000C943E000C943E000C943E0068
:100020000C943E000C943E000C943E000C943E0058
:100030000C943E000C943E000C943E000C943E0048
:100040000C943E000C943E000C943E000C943E0038
:100050000C943E000C943E000C943E000C943E0028
:100060000C943E000C943E0011241FBECFEFD8E04C
:10007000DEBFCDBF0E9440000C9461000C940000D4
:10008000389A8AB18FEF8AB9409A1BB8C4E8D0E099
:10009000A0E8B0E0E1E8F0E043E091E02EEE35E8E2
:1000A000398328831C924083B09BFECF108296BB7D
:1000B00088B1892788B9409BF3CF8BB18F5F8BB90B
:0600C000EFCFF894FFCF22
:00000001FF
