:100000000C9434000C9446000C9446000C9446006A
:100010000C9446000C9446000C9446000C94460048
:100020000C9446000C9446000C9446000C94460038
:100030000C9446000C9446000C9446000C94460028
:100040000C9446000C9446000C9446000C94460018
:100050000C9446000C9446000C9446000C94460008
:100060000C9446000C94460011241FBECFEFD8E03C
:10007000DEBFCDBF21E0A0E0B1E001C01D92A23003
:10008000B207E1F70E9448000C94C5000C940000F0
:1000900087B1816387B98AB18FEF8AB988B188B98E
:1000A0001BB80F2EF4E8EF2EF12CF02D00E810E035
:1000B000E1E8F0E021E00F2EF5E08F2E912CF02DFD
:1000C0006894BB24B5F80F2EFAE0CF2ED12CF02D7A
:1000D00033E0CEEED5E840E1D7011196DC93CE9324
:1000E000D8011C923083B09BFECF108226BB88B112
:1000F000822788B9409BF0CF8BB18F5F8BB98091FD
:1001000000019091010101969093010180930001FB
:10011000B4010E949D00892B19F488B18B2588B900
:100120008091000190910101B6010E949D00892BF0
:1001300099F688B1842788B9CFCF97FB072E16F49C
:10014000009407D077FD09D00E94B10007FC05D0CC
:100150003EF4909581959F4F0895709561957F4FDE
:100160000895AA1BBB1B51E107C0AA1FBB1FA617FE
:10017000B70710F0A61BB70B881F991F5A95A9F750
:0E01800080959095BC01CD010895F894FFCFB5
:00000001FF
