:100000000C9434000C9446000C9446000C9446006A
:100010000C9478000C9446000C9446000C94460016
:100020000C9446000C9446000C9446000C94460038
:100030000C9446000C9446000C9446000C94460028
:100040000C9446000C9446000C9446000C94460018
:100050000C9446000C9446000C9446000C94460008
:100060000C9446000C94460011241FBECFEFD8E03C
:10007000DEBFCDBF21E0A0E0B1E001C01D92A23003
:10008000B207E1F70E9448000C94DB000C940000DA
:1000900087B1816387B98AB18FEF8AB988B188B98E
:1000A0001BB8E8E6F0E0808182608083D99AECE6B4
:1000B000F0E08081816080837894C4E8D0E0A0E89B
:1000C000B0E0E1E8F0E043E091E02EEE35E839837E
:1000D00028831C924083B09BFECF108296BB88B1D0
:1000E000892788B9409BF3CF8BB18F5F8BB9EFCF56
:1000F0001F920F920FB60F9211245F936F937F930D
:100100008F939F93AF93BF93409B21C08091000139
:10011000909101010196909301018093000165E0A7
:1001200070E00E94B300892B21F498B180E2892706
:1001300088B980910001909101016AE070E00E940D
:10014000B300892B21F498B180E1892788B9BF9148
:10015000AF919F918F917F916F915F910F900FBEA3
:100160000F901F90189597FB072E16F4009407D058
:1001700077FD09D00E94C70007FC05D03EF490959A
:1001800081959F4F0895709561957F4F0895AA1BA3
:10019000BB1B51E107C0AA1FBB1FA617B70710F072
:1001A000A61BB70B881F991F5A95A9F780959095A4
:0A01B000BC01CD010895F894FFCFC3
:00000001FF
