S00F000044413254315F432E7372656337
S11300000C9434000C943E000C943E000C943E007E
S11300100C943E000C943E000C943E000C943E0064
S11300200C943E000C943E000C943E000C943E0054
S11300300C943E000C943E000C943E000C943E0044
S11300400C943E000C943E000C943E000C943E0034
S11300500C943E000C943E000C943E000C943E0024
S11300600C943E000C943E0011241FBECFEFD8E048
S1130070DEBFCDBF0E9440000C9458000C940000D9
S1130080389A409AC4E8D0E04EEE55E8A0E8B0E0D3
S1130090E1E8F0E023E091E0598348831C92208357
S11300A0B09BFECF108296BB88B1892788B9F4CF64
S10700B0F894FFCFEE
S9030000FC
