:020000020000FC
:040000000C940A0052
:100010000C944D003D9A3C9A5518AA1805E0100E14
:100020000AE0200E00E2600E00E1700E8818509A7F
:10003000519A529A539A549A559A569A579A30E02E
:100040003BB901E0389A88B842E04093680042E04A
:1000500040931B0041E040936C00789409D08026C7
:1000600088B8409B0C94350033953BB988B8F6CFDF
:1000700045E8409385004EEE4093840040E0409375
:10008000800043E04093810046B340FFFDCF40E055
:100090004093810041E046BB089588B8409B0C9492
:1000A00053005394A394511410F086245518A214AD
:0C00B00010F08724AA1842E04CBB189501
:00000001FF
